{
  "contractName": "Identity",
  "abi": [
    {
      "inputs": [
        {
          "name": "_davTokenContract",
          "type": "address"
        }
      ],
      "payable": false,
      "stateMutability": "nonpayable",
      "type": "constructor"
    },
    {
      "constant": false,
      "inputs": [
        {
          "name": "_id",
          "type": "address"
        },
        {
          "name": "_v",
          "type": "uint8"
        },
        {
          "name": "_r",
          "type": "bytes32"
        },
        {
          "name": "_s",
          "type": "bytes32"
        }
      ],
      "name": "register",
      "outputs": [],
      "payable": false,
      "stateMutability": "nonpayable",
      "type": "function"
    },
    {
      "constant": true,
      "inputs": [
        {
          "name": "_id",
          "type": "address"
        }
      ],
      "name": "getBalance",
      "outputs": [
        {
          "name": "balance",
          "type": "uint256"
        }
      ],
      "payable": false,
      "stateMutability": "view",
      "type": "function"
    },
    {
      "constant": true,
      "inputs": [
        {
          "name": "_id",
          "type": "address"
        },
        {
          "name": "_wallet",
          "type": "address"
        }
      ],
      "name": "verifyOwnership",
      "outputs": [
        {
          "name": "verified",
          "type": "bool"
        }
      ],
      "payable": false,
      "stateMutability": "view",
      "type": "function"
    },
    {
      "constant": true,
      "inputs": [
        {
          "name": "_id",
          "type": "address"
        }
      ],
      "name": "isRegistered",
      "outputs": [
        {
          "name": "",
          "type": "bool"
        }
      ],
      "payable": false,
      "stateMutability": "view",
      "type": "function"
    }
  ],
  "bytecode": "0x6060604052341561000f57600080fd5b60405160208061077f8339810160405280805190602001909190505080600160006101000a81548173ffffffffffffffffffffffffffffffffffffffff021916908373ffffffffffffffffffffffffffffffffffffffff160217905550506107038061007c6000396000f300606060405260043610610062576000357c0100000000000000000000000000000000000000000000000000000000900463ffffffff16806307957360146100675780633c56e2ae146100d7578063c3c5a54714610136578063f8b2cb4f14610187575b600080fd5b341561007257600080fd5b6100bd600480803573ffffffffffffffffffffffffffffffffffffffff1690602001909190803573ffffffffffffffffffffffffffffffffffffffff169060200190919050506101d4565b604051808215151515815260200191505060405180910390f35b34156100e257600080fd5b610134600480803573ffffffffffffffffffffffffffffffffffffffff1690602001909190803560ff16906020019091908035600019169060200190919080356000191690602001909190505061026e565b005b341561014157600080fd5b61016d600480803573ffffffffffffffffffffffffffffffffffffffff16906020019091905050610509565b604051808215151515815260200191505060405180910390f35b341561019257600080fd5b6101be600480803573ffffffffffffffffffffffffffffffffffffffff1690602001909190505061058d565b6040518082815260200191505060405180910390f35b60008173ffffffffffffffffffffffffffffffffffffffff166000808573ffffffffffffffffffffffffffffffffffffffff1673ffffffffffffffffffffffffffffffffffffffff16815260200190815260200160002060000160009054906101000a900473ffffffffffffffffffffffffffffffffffffffff1673ffffffffffffffffffffffffffffffffffffffff1614905092915050565b6000806000808773ffffffffffffffffffffffffffffffffffffffff1673ffffffffffffffffffffffffffffffffffffffff16815260200190815260200160002060000160009054906101000a900473ffffffffffffffffffffffffffffffffffffffff1673ffffffffffffffffffffffffffffffffffffffff161415156102f557600080fd5b7f19457468657265756d205369676e6564204d6573736167653a0a3332000000007f444156204964656e7469747920526567697374726174696f6e00000000000000604051808266ffffffffffffff191666ffffffffffffff191681526019019150506040518091039020604051808363ffffffff191663ffffffff19168152601c01826000191660001916815260200192505050604051809103902090508473ffffffffffffffffffffffffffffffffffffffff16600182868686604051600081526020016040526000604051602001526040518085600019166000191681526020018460ff1660ff16815260200183600019166000191681526020018260001916600019168152602001945050505050602060405160208103908084039060008661646e5a03f1151561042957600080fd5b50506020604051035173ffffffffffffffffffffffffffffffffffffffff1614151561045457600080fd5b6020604051908101604052803373ffffffffffffffffffffffffffffffffffffffff168152506000808773ffffffffffffffffffffffffffffffffffffffff1673ffffffffffffffffffffffffffffffffffffffff16815260200190815260200160002060008201518160000160006101000a81548173ffffffffffffffffffffffffffffffffffffffff021916908373ffffffffffffffffffffffffffffffffffffffff1602179055509050505050505050565b6000806000808473ffffffffffffffffffffffffffffffffffffffff1673ffffffffffffffffffffffffffffffffffffffff16815260200190815260200160002060000160009054906101000a900473ffffffffffffffffffffffffffffffffffffffff1673ffffffffffffffffffffffffffffffffffffffff1614159050919050565b6000600160009054906101000a900473ffffffffffffffffffffffffffffffffffffffff1673ffffffffffffffffffffffffffffffffffffffff166370a082316000808573ffffffffffffffffffffffffffffffffffffffff1673ffffffffffffffffffffffffffffffffffffffff16815260200190815260200160002060000160009054906101000a900473ffffffffffffffffffffffffffffffffffffffff166000604051602001526040518263ffffffff167c0100000000000000000000000000000000000000000000000000000000028152600401808273ffffffffffffffffffffffffffffffffffffffff1673ffffffffffffffffffffffffffffffffffffffff168152602001915050602060405180830381600087803b15156106b557600080fd5b6102c65a03f115156106c657600080fd5b5050506040518051905090509190505600a165627a7a72305820e56a8b1c8a8da346f26c0b91f33e301a095597f9aceec9c02f7fb69bc709fe030029",
  "source": "pragma solidity ^0.4.15;\n\nimport './DAVToken.sol';\n\n\n/**\n * @title Identity\n */\ncontract Identity {\n\n  struct DAVIdentity {\n    address wallet;\n  }\n\n  mapping (address => DAVIdentity) private identities;\n\n  DAVToken private token;\n\n  // Prefix to added to messages signed by web3\n  bytes28 private constant ETH_SIGNED_MESSAGE_PREFIX = '\\x19Ethereum Signed Message:\\n32';\n  bytes25 private constant DAV_REGESTRATION_REQUEST = 'DAV Identity Registration';\n\n\n  /**\n  * @dev Constructor\n  *\n  * @param _davTokenContract address of the DAVToken contract\n  */\n  function Identity(DAVToken _davTokenContract) public {\n    token = _davTokenContract;\n  }\n\n  function register(address _id, uint8 _v, bytes32 _r, bytes32 _s) public {\n    // Make sure id isn't registered already\n    require(\n      identities[_id].wallet == 0x0\n    );\n    // Generate message hash\n    bytes32 prefixedHash = keccak256(ETH_SIGNED_MESSAGE_PREFIX, keccak256(DAV_REGESTRATION_REQUEST));\n    // Verify message signature\n    require(\n      ecrecover(prefixedHash, _v, _r, _s) == _id\n    );\n\n    // Register in identities mapping\n    identities[_id] = DAVIdentity({\n      wallet: msg.sender\n    });\n  }\n\n  function getBalance(address _id) public view returns (uint256 balance) {\n    return token.balanceOf(identities[_id].wallet);\n  }\n\n  function verifyOwnership(address _id, address _wallet) public view returns (bool verified) {\n    return identities[_id].wallet == _wallet;\n  }\n\n  // Check identity registration status\n  function isRegistered(address _id) public view returns (bool) {\n    return identities[_id].wallet != 0x0;\n  }\n}\n",
  "sourcePath": "/Users/anatolyt/projects/dav/contracts/contracts/Identity.sol",
  "compiler": {
    "name": "solc",
    "version": "0.4.19+commit.c4cbbb05.Emscripten.clang"
  },
  "schemaVersion": "2.0.0",
  "updatedAt": "2018-03-25T21:18:45.737Z"
}